:020000040000fa
:080000000002040000000000f2
:020000040000fa
:100008009402000094020000940200009402000090
:100018009402000094020000940200009402000080
:100028009402000094020000940200009402000070
:100038009402000094020000940200009402000060
:100048009402000094020000940200009402000050
:100058009402000094020000940200009402000040
:1000680094020000940200009402000012050000af
:100078009402000094020000940200009402000020
:100088009402000094020000940200009402000010
:100098009402000094020000940200009402000000
:1000a80094020000940200009402000094020000f0
:1000b80094020000940200009402000094020000e0
:1000c80094020000940200009402000094020000d0
:1000d80094020000940200009402000094020000c0
:1000e80094020000940200009402000094020000b0
:1000f80094020000940200009402000094020000a0
:10010800940200009402000094020000940200008f
:10011800940200009402000094020000940200007f
:10012800940200009402000094020000940200006f
:10013800940200009402000094020000940200005f
:10014800940200009402000094020000940200004f
:10015800940200009402000094020000940200003f
:10016800940200009402000094020000940200002f
:10017800940200009402000094020000940200001f
:10018800940200009402000094020000940200000f
:1001980094020000940200009402000094020000ff
:1001a80094020000940200009402000094020000ef
:1001b80094020000940200009402000094020000df
:1001c80094020000940200009402000094020000cf
:1001d80094020000940200009402000094020000bf
:1001e80094020000940200009402000094020000af
:0801f8009402000094020000d3
:020000040000fa
:10020800940200009402000094020000940200008e
:10021800940200009402000094020000940200007e
:10022800940200009402000094020000940200006e
:10023800940200009402000094020000940200005e
:10024800940200009402000094020000940200004e
:10025800940200009402000094020000940200003e
:1002680094020000940200009402000012050000ad
:10027800940200009402000094020000940200001e
:10028800940200009402000094020000940200000e
:1002980094020000940200009402000094020000fe
:1002a80094020000940200009402000094020000ee
:1002b80094020000940200009402000094020000de
:1002c80094020000940200009402000094020000ce
:1002d80094020000940200009402000094020000be
:1002e80094020000940200009402000094020000ae
:1002f800940200009402000094020000940200009e
:10030800940200009402000094020000940200008d
:10031800940200009402000094020000940200007d
:10032800940200009402000094020000940200006d
:10033800940200009402000094020000940200005d
:10034800940200009402000094020000940200004d
:10035800940200009402000094020000940200003d
:10036800940200009402000094020000940200002d
:10037800940200009402000094020000940200001d
:10038800940200009402000094020000940200000d
:1003980094020000940200009402000094020000fd
:1003a80094020000940200009402000094020000ed
:1003b80094020000940200009402000094020000dd
:1003c80094020000940200009402000094020000cd
:1003d80094020000940200009402000094020000bd
:1003e80094020000940200009402000094020000ad
:0803f8009402000094020000d1
:020000040000fa
:100400006f8020000e7f22000e0188000000000097
:1004100000012000200288000c000700c0522000cc
:100420000100200011000700000020000000e00093
:10043000020032000000020000000000360402004a
:10044000000000000040da000000fe004440a90067
:10045000000120000000e000030032000000200046
:10046000a00188004440a800000006009101880017
:10047000800078000000eb0015003700e2804000ab
:1004800032a0b4009101ba00e280400032a0b40072
:100490009102ba00e280400032a0b4000002eb00fa
:1004a000472bde00f507b200602ce10004003a00a3
:1004b0000059eb008301e900fdff3e000400370016
:1004c0006128e100010032000082eb000400070017
:1004d0001101ba000200e000e8ff3a000000060047
:1004e0003159ba008301e9000c0032002159ba00e9
:1004f0008301e900080032000400e00003003a0034
:10050000e280400032a0b400f5ff370011d9ba00f4
:100510008301e900faff3a008100e800e180400031
:1005200032a0b400000006000040da000000fe0027
:020000040000fa
:10053000426c0000616300006b0000005265000027
:100540006400000057680000697400006500000046
:020000040000fa
:100550000200fa00000f78001281a80012a1a80082
:100560000002eb00540888009e02780094032000eb
:1005700004aab90004027800740888000403280063
:10058000940888000000000055088000740880006e
:10059000848f5200fcff390013e1a9000080fa00ab
:1005a000000006000400fa00004f780011079800d0
:1005b0009e42780061c262000482fb006102620018
:1005c0004722dd0066168000f5f72f0085026300e4
:1005d00004827200641688001e009000dcff070091
:1005e000ccc2a8001e009000d9ff0700ccc2a90011
:1005f0001e009000d6ff07000080fa0000000600f1
:100600000600fa00004f78001107980022079800b2
:100610009e4278000582fb004422de0004427800fe
:100620000482fb004c22dd00840278006616800004
:10063000f4ff200004026300048272006416880044
:100640001e02900004427800ae0090000440780042
:10065000d4ff07009e4278000582fb004422dd00a3
:1006600044a2de004c22dd00840278006616800081
:10067000f4ff200004026300048272006416880004
:100680001e02900004427800ae0090000440780002
:10069000c4ff07000080fa00000006000000fa0016
:1006a000120020008000eb0010c0b300d4ff070050
:1006b0000080fa00000006000000fa00c9e2a9006c
:1006c000c9c2a900c9a2a900c982a900c8e2a9009b
:1006d000c8c2a90065168000f4ff200004826200f1
:1006e00064168800cce2a900ccc2a90080a923002e
:1006f00097ff070065168000f4ff200084826200e7
:100700000400230004827200641688004100210066
:100710000040eb00a3ff070065168000f4ff2000f7
:100720008482620004002300048272006416880040
:10073000410620000040eb009aff0700420620001f
:100740008000eb0020c3b300adff07008202200051
:100750008000eb00f0c2b300a9ff07008202200076
:100760008000eb0080c0b300a5ff0700cbff0700af
:10077000a20020008000eb0060c0b300a0ff0700d3
:10078000a20020008000eb00c0c0b3009cff070067
:100790000080fa00000006000400fa0020479800dc
:1007a000314798000002eb00040f7800120020008f
:1007b0008000eb0020c0b30091ff07002e429000a4
:1007c000e14f520004003a00120020008000eb00cc
:1007d00000ccb3008aff07000002eb00040f780092
:1007e00005003700120020008000eb0040c1b3007c
:1007f00083ff07001e0fe8003e4290000482fb00ca
:100800009e0f5200f7ff3c000080fa000000060037
:100810000200fa00004f78001e427800120020000b
:10082000110020000440780075ff07000080fa00e6
:10083000000006000200fa00000f780005003700f3
:100840001e027800144278001e0fe8000440780071
:10085000efff07001e02780014427800e04f5200bc
:10086000f7ff3a000080fa00000006000800fa00d6
:1008700091ff070065198000e4ff2f0004826200e9
:10088000641988000002eb0014198800141020007d
:1008900024198800440e2200041988000002eb008d
:1008a000441988000002eb008419880085a0a90083
:1008b00021e3a800c8a2a8006360a8008660a90080
:1008c0009660a8000002eb003408880010a1a80080
:1008d0001081a80011e1a80024732000640888009a
:1008e0001536800004fe2f00048262002401b3004c
:1008f000143688008461a900240c80000400a10043
:100900000410a0000420a000240c88002473200000
:10091000140c880094392000040c880015368000df
:10092000f40f2e00848262000430210004827200e1
:10093000143688008a61a900540c80000400a100cc
:100940000410a0000420a000540c88002473200090
:10095000440c880094392000340c8800453680000f
:1009600004fe2f00048262002401b3004436880094
:1009700045368000f40f2e0084826200043021008e
:100980000482720044368800010037000000000035
:10099000250480000400220004826200e00f52005f
:1009a000faff320085a0a9000418800004408800e6
:1009b0008040eb000040eb0077ff0700054080001f
:1009c00034062000848f520002003c0033ff0700f1
:1009d000efff370005408000740c2000848f520028
:1009e00004003c002dff07008029280091ff07002c
:1009f000e7ff370005408000f4182000848f520084
:100a000004003c0025ff0700e029280089ff0700bb
:100a1000dfff370021ff0700202a280085ff07009d
:100a2000dbff37003400f800881f78000800200042
:100a3000a80188004f0478000000fa008660a90031
:100a40000080fa003400f900004006000000fa00bf
:080a50000080fa00000006001e
:020000040000fa
:100a58000008000006000000000000000000000080
:020000040000fa
:020000040001f9
:0457f800ad7b000085
:020000040000fa
:020000040001f9
:0457fc003f3f00002b
:00000001FF
